{
  "_format": "hh-sol-artifact-1",
  "contractName": "Turing",
  "sourceName": "contracts/Turing.sol",
  "abi": [
    {
      "inputs": [],
      "stateMutability": "nonpayable",
      "type": "constructor"
    },
    {
      "inputs": [
        {
          "internalType": "address",
          "name": "spender",
          "type": "address"
        },
        {
          "internalType": "uint256",
          "name": "allowance",
          "type": "uint256"
        },
        {
          "internalType": "uint256",
          "name": "needed",
          "type": "uint256"
        }
      ],
      "name": "ERC20InsufficientAllowance",
      "type": "error"
    },
    {
      "inputs": [
        {
          "internalType": "address",
          "name": "sender",
          "type": "address"
        },
        {
          "internalType": "uint256",
          "name": "balance",
          "type": "uint256"
        },
        {
          "internalType": "uint256",
          "name": "needed",
          "type": "uint256"
        }
      ],
      "name": "ERC20InsufficientBalance",
      "type": "error"
    },
    {
      "inputs": [
        {
          "internalType": "address",
          "name": "approver",
          "type": "address"
        }
      ],
      "name": "ERC20InvalidApprover",
      "type": "error"
    },
    {
      "inputs": [
        {
          "internalType": "address",
          "name": "receiver",
          "type": "address"
        }
      ],
      "name": "ERC20InvalidReceiver",
      "type": "error"
    },
    {
      "inputs": [
        {
          "internalType": "address",
          "name": "sender",
          "type": "address"
        }
      ],
      "name": "ERC20InvalidSender",
      "type": "error"
    },
    {
      "inputs": [
        {
          "internalType": "address",
          "name": "spender",
          "type": "address"
        }
      ],
      "name": "ERC20InvalidSpender",
      "type": "error"
    },
    {
      "anonymous": false,
      "inputs": [
        {
          "indexed": true,
          "internalType": "address",
          "name": "owner",
          "type": "address"
        },
        {
          "indexed": true,
          "internalType": "address",
          "name": "spender",
          "type": "address"
        },
        {
          "indexed": false,
          "internalType": "uint256",
          "name": "value",
          "type": "uint256"
        }
      ],
      "name": "Approval",
      "type": "event"
    },
    {
      "anonymous": false,
      "inputs": [
        {
          "indexed": false,
          "internalType": "string",
          "name": "name",
          "type": "string"
        },
        {
          "indexed": false,
          "internalType": "uint256",
          "name": "amount",
          "type": "uint256"
        }
      ],
      "name": "OnVote",
      "type": "event"
    },
    {
      "anonymous": false,
      "inputs": [
        {
          "indexed": true,
          "internalType": "address",
          "name": "from",
          "type": "address"
        },
        {
          "indexed": true,
          "internalType": "address",
          "name": "to",
          "type": "address"
        },
        {
          "indexed": false,
          "internalType": "uint256",
          "name": "value",
          "type": "uint256"
        }
      ],
      "name": "Transfer",
      "type": "event"
    },
    {
      "inputs": [
        {
          "internalType": "address",
          "name": "owner",
          "type": "address"
        },
        {
          "internalType": "address",
          "name": "spender",
          "type": "address"
        }
      ],
      "name": "allowance",
      "outputs": [
        {
          "internalType": "uint256",
          "name": "",
          "type": "uint256"
        }
      ],
      "stateMutability": "view",
      "type": "function"
    },
    {
      "inputs": [
        {
          "internalType": "address",
          "name": "spender",
          "type": "address"
        },
        {
          "internalType": "uint256",
          "name": "value",
          "type": "uint256"
        }
      ],
      "name": "approve",
      "outputs": [
        {
          "internalType": "bool",
          "name": "",
          "type": "bool"
        }
      ],
      "stateMutability": "nonpayable",
      "type": "function"
    },
    {
      "inputs": [
        {
          "internalType": "address",
          "name": "account",
          "type": "address"
        }
      ],
      "name": "balanceOf",
      "outputs": [
        {
          "internalType": "uint256",
          "name": "",
          "type": "uint256"
        }
      ],
      "stateMutability": "view",
      "type": "function"
    },
    {
      "inputs": [],
      "name": "decimals",
      "outputs": [
        {
          "internalType": "uint8",
          "name": "",
          "type": "uint8"
        }
      ],
      "stateMutability": "view",
      "type": "function"
    },
    {
      "inputs": [],
      "name": "getAllAuthorizedUsers",
      "outputs": [
        {
          "internalType": "string[]",
          "name": "",
          "type": "string[]"
        }
      ],
      "stateMutability": "view",
      "type": "function"
    },
    {
      "inputs": [],
      "name": "getLoggedUser",
      "outputs": [
        {
          "internalType": "string",
          "name": "",
          "type": "string"
        }
      ],
      "stateMutability": "view",
      "type": "function"
    },
    {
      "inputs": [
        {
          "internalType": "string",
          "name": "name",
          "type": "string"
        },
        {
          "internalType": "uint256",
          "name": "amount",
          "type": "uint256"
        }
      ],
      "name": "issueToken",
      "outputs": [],
      "stateMutability": "nonpayable",
      "type": "function"
    },
    {
      "inputs": [],
      "name": "name",
      "outputs": [
        {
          "internalType": "string",
          "name": "",
          "type": "string"
        }
      ],
      "stateMutability": "view",
      "type": "function"
    },
    {
      "inputs": [],
      "name": "symbol",
      "outputs": [
        {
          "internalType": "string",
          "name": "",
          "type": "string"
        }
      ],
      "stateMutability": "view",
      "type": "function"
    },
    {
      "inputs": [],
      "name": "totalSupply",
      "outputs": [
        {
          "internalType": "uint256",
          "name": "",
          "type": "uint256"
        }
      ],
      "stateMutability": "view",
      "type": "function"
    },
    {
      "inputs": [
        {
          "internalType": "address",
          "name": "to",
          "type": "address"
        },
        {
          "internalType": "uint256",
          "name": "value",
          "type": "uint256"
        }
      ],
      "name": "transfer",
      "outputs": [
        {
          "internalType": "bool",
          "name": "",
          "type": "bool"
        }
      ],
      "stateMutability": "nonpayable",
      "type": "function"
    },
    {
      "inputs": [
        {
          "internalType": "address",
          "name": "from",
          "type": "address"
        },
        {
          "internalType": "address",
          "name": "to",
          "type": "address"
        },
        {
          "internalType": "uint256",
          "name": "value",
          "type": "uint256"
        }
      ],
      "name": "transferFrom",
      "outputs": [
        {
          "internalType": "bool",
          "name": "",
          "type": "bool"
        }
      ],
      "stateMutability": "nonpayable",
      "type": "function"
    },
    {
      "inputs": [
        {
          "internalType": "string",
          "name": "name",
          "type": "string"
        },
        {
          "internalType": "uint256",
          "name": "amount",
          "type": "uint256"
        }
      ],
      "name": "vote",
      "outputs": [],
      "stateMutability": "nonpayable",
      "type": "function"
    },
    {
      "inputs": [],
      "name": "votingActive",
      "outputs": [
        {
          "internalType": "bool",
          "name": "",
          "type": "bool"
        }
      ],
      "stateMutability": "view",
      "type": "function"
    },
    {
      "inputs": [],
      "name": "votingOff",
      "outputs": [],
      "stateMutability": "nonpayable",
      "type": "function"
    },
    {
      "inputs": [],
      "name": "votingOn",
      "outputs": [],
      "stateMutability": "nonpayable",
      "type": "function"
    }
  ],
  "bytecode": "0x608060405273502542668af09fa7aea52174b9965a7799343df7600660006101000a81548173ffffffffffffffffffffffffffffffffffffffff021916908373ffffffffffffffffffffffffffffffffffffffff1602179055506000600a556001600b60006101000a81548160ff02191690831515021790555034801561008557600080fd5b506040518060400160405280600681526020017f547572696e6700000000000000000000000000000000000000000000000000008152506040518060400160405280600381526020017f545243000000000000000000000000000000000000000000000000000000000081525081600390816101019190610773565b5080600490816101119190610773565b50505033600560006101000a81548173ffffffffffffffffffffffffffffffffffffffff021916908373ffffffffffffffffffffffffffffffffffffffff1602179055506101ae6040518060400160405280600581526020017f4b6576696e00000000000000000000000000000000000000000000000000000081525073f39fd6e51aad88f6f4ce6ab8827279cfffb9226661031760201b60201c565b6102076040518060400160405280600581526020017f6e6f6d65320000000000000000000000000000000000000000000000000000008152507370997970c51812dc3a010c7d01b50e0d17dc79c861031760201b60201c565b6102606040518060400160405280600581526020017f6e6f6d6533000000000000000000000000000000000000000000000000000000815250733c44cdddb6a900fa2b585dd299e03d12fa4293bc61031760201b60201c565b6102b96040518060400160405280600581526020017f6e6f6d65340000000000000000000000000000000000000000000000000000008152507390f79bf6eb2c4f870365e785982e1f101e93b90661031760201b60201c565b6103126040518060400160405280600581526020017f6e6f6d65350000000000000000000000000000000000000000000000000000008152507315d34aaf54267db7d7c367839aaf71a00a2c6a6561031760201b60201c565b610925565b60405180608001604052808273ffffffffffffffffffffffffffffffffffffffff16815260200160008152602001600a5481526020018381525060078360405161036191906108ab565b908152602001604051809103902060008201518160000160006101000a81548173ffffffffffffffffffffffffffffffffffffffff021916908373ffffffffffffffffffffffffffffffffffffffff160217905550602082015181600101556040820151816002015560608201518160030190816103df9190610773565b5090505060405180608001604052808273ffffffffffffffffffffffffffffffffffffffff16815260200160008152602001600a54815260200183815250600860008373ffffffffffffffffffffffffffffffffffffffff1673ffffffffffffffffffffffffffffffffffffffff16815260200190815260200160002060008201518160000160006101000a81548173ffffffffffffffffffffffffffffffffffffffff021916908373ffffffffffffffffffffffffffffffffffffffff160217905550602082015181600101556040820151816002015560608201518160030190816104cc9190610773565b509050506001600a60008282546104e391906108f1565b9250508190555060098290806001815401808255809150506001900390600052602060002001600090919091909150908161051e9190610773565b505050565b600081519050919050565b7f4e487b7100000000000000000000000000000000000000000000000000000000600052604160045260246000fd5b7f4e487b7100000000000000000000000000000000000000000000000000000000600052602260045260246000fd5b600060028204905060018216806105a457607f821691505b6020821081036105b7576105b661055d565b5b50919050565b60008190508160005260206000209050919050565b60006020601f8301049050919050565b600082821b905092915050565b60006008830261061f7fffffffffffffffffffffffffffffffffffffffffffffffffffffffffffffffff826105e2565b61062986836105e2565b95508019841693508086168417925050509392505050565b6000819050919050565b6000819050919050565b600061067061066b61066684610641565b61064b565b610641565b9050919050565b6000819050919050565b61068a83610655565b61069e61069682610677565b8484546105ef565b825550505050565b600090565b6106b36106a6565b6106be818484610681565b505050565b5b818110156106e2576106d76000826106ab565b6001810190506106c4565b5050565b601f821115610727576106f8816105bd565b610701846105d2565b81016020851015610710578190505b61072461071c856105d2565b8301826106c3565b50505b505050565b600082821c905092915050565b600061074a6000198460080261072c565b1980831691505092915050565b60006107638383610739565b9150826002028217905092915050565b61077c82610523565b67ffffffffffffffff8111156107955761079461052e565b5b61079f825461058c565b6107aa8282856106e6565b600060209050601f8311600181146107dd57600084156107cb578287015190505b6107d58582610757565b86555061083d565b601f1984166107eb866105bd565b60005b82811015610813578489015182556001820191506020850194506020810190506107ee565b86831015610830578489015161082c601f891682610739565b8355505b6001600288020188555050505b505050505050565b600081905092915050565b60005b8381101561086e578082015181840152602081019050610853565b60008484015250505050565b600061088582610523565b61088f8185610845565b935061089f818560208601610850565b80840191505092915050565b60006108b7828461087a565b915081905092915050565b7f4e487b7100000000000000000000000000000000000000000000000000000000600052601160045260246000fd5b60006108fc82610641565b915061090783610641565b925082820190508082111561091f5761091e6108c2565b5b92915050565b61214f806109346000396000f3fe608060405234801561001057600080fd5b50600436106101005760003560e01c806360a3ae0611610097578063a638580311610066578063a63858031461027b578063a9059cbb14610297578063c683e0f4146102c7578063dd62ed3e146102e357610100565b806360a3ae061461020557806370a082311461020f57806384823cb51461023f57806395d89b411461025d57610100565b806323b872dd116100d357806323b872dd1461017b578063313ce567146101ab578063408e2727146101c95780634cf8461e146101e757610100565b806306fdde0314610105578063095ea7b31461012357806318160ddd1461015357806320949bb414610171575b600080fd5b61010d610313565b60405161011a91906116b6565b60405180910390f35b61013d60048036038101906101389190611780565b6103a5565b60405161014a91906117db565b60405180910390f35b61015b6103c8565b6040516101689190611805565b60405180910390f35b6101796103d2565b005b61019560048036038101906101909190611820565b6104d7565b6040516101a291906117db565b60405180910390f35b6101b3610506565b6040516101c0919061188f565b60405180910390f35b6101d161050f565b6040516101de91906117db565b60405180910390f35b6101ef610522565b6040516101fc91906116b6565b60405180910390f35b61020d6105f4565b005b610229600480360381019061022491906118aa565b6106f9565b6040516102369190611805565b60405180910390f35b610247610741565b60405161025491906119e3565b60405180910390f35b61026561081a565b60405161027291906116b6565b60405180910390f35b61029560048036038101906102909190611b3a565b6108ac565b005b6102b160048036038101906102ac9190611780565b610d74565b6040516102be91906117db565b60405180910390f35b6102e160048036038101906102dc9190611b3a565b610d97565b005b6102fd60048036038101906102f89190611b96565b610f7e565b60405161030a9190611805565b60405180910390f35b60606003805461032290611c05565b80601f016020809104026020016040519081016040528092919081815260200182805461034e90611c05565b801561039b5780601f106103705761010080835404028352916020019161039b565b820191906000526020600020905b81548152906001019060200180831161037e57829003601f168201915b5050505050905090565b6000806103b0611005565b90506103bd81858561100d565b600191505092915050565b6000600254905090565b600660009054906101000a900473ffffffffffffffffffffffffffffffffffffffff1673ffffffffffffffffffffffffffffffffffffffff163373ffffffffffffffffffffffffffffffffffffffff16148061047b5750600560009054906101000a900473ffffffffffffffffffffffffffffffffffffffff1673ffffffffffffffffffffffffffffffffffffffff163373ffffffffffffffffffffffffffffffffffffffff16145b6104ba576040517f08c379a00000000000000000000000000000000000000000000000000000000081526004016104b190611ca8565b60405180910390fd5b6001600b60006101000a81548160ff021916908315150217905550565b6000806104e2611005565b90506104ef85828561101f565b6104fa8585856110b4565b60019150509392505050565b60006012905090565b600b60009054906101000a900460ff1681565b6060600860003373ffffffffffffffffffffffffffffffffffffffff1673ffffffffffffffffffffffffffffffffffffffff168152602001908152602001600020600301805461057190611c05565b80601f016020809104026020016040519081016040528092919081815260200182805461059d90611c05565b80156105ea5780601f106105bf576101008083540402835291602001916105ea565b820191906000526020600020905b8154815290600101906020018083116105cd57829003601f168201915b5050505050905090565b600660009054906101000a900473ffffffffffffffffffffffffffffffffffffffff1673ffffffffffffffffffffffffffffffffffffffff163373ffffffffffffffffffffffffffffffffffffffff16148061069d5750600560009054906101000a900473ffffffffffffffffffffffffffffffffffffffff1673ffffffffffffffffffffffffffffffffffffffff163373ffffffffffffffffffffffffffffffffffffffff16145b6106dc576040517f08c379a00000000000000000000000000000000000000000000000000000000081526004016106d390611ca8565b60405180910390fd5b6000600b60006101000a81548160ff021916908315150217905550565b60008060008373ffffffffffffffffffffffffffffffffffffffff1673ffffffffffffffffffffffffffffffffffffffff168152602001908152602001600020549050919050565b60606009805480602002602001604051908101604052809291908181526020016000905b8282101561081157838290600052602060002001805461078490611c05565b80601f01602080910402602001604051908101604052809291908181526020018280546107b090611c05565b80156107fd5780601f106107d2576101008083540402835291602001916107fd565b820191906000526020600020905b8154815290600101906020018083116107e057829003601f168201915b505050505081526020019060010190610765565b50505050905090565b60606004805461082990611c05565b80601f016020809104026020016040519081016040528092919081815260200182805461085590611c05565b80156108a25780601f10610877576101008083540402835291602001916108a2565b820191906000526020600020905b81548152906001019060200180831161088557829003601f168201915b5050505050905090565b60006007836040516108be9190611d04565b90815260200160405180910390206040518060800160405290816000820160009054906101000a900473ffffffffffffffffffffffffffffffffffffffff1673ffffffffffffffffffffffffffffffffffffffff1673ffffffffffffffffffffffffffffffffffffffff168152602001600182015481526020016002820154815260200160038201805461095190611c05565b80601f016020809104026020016040519081016040528092919081815260200182805461097d90611c05565b80156109ca5780601f1061099f576101008083540402835291602001916109ca565b820191906000526020600020905b8154815290600101906020018083116109ad57829003601f168201915b50505050508152505090506000600860003373ffffffffffffffffffffffffffffffffffffffff1673ffffffffffffffffffffffffffffffffffffffff1681526020019081526020016000206040518060800160405290816000820160009054906101000a900473ffffffffffffffffffffffffffffffffffffffff1673ffffffffffffffffffffffffffffffffffffffff1673ffffffffffffffffffffffffffffffffffffffff1681526020016001820154815260200160028201548152602001600382018054610a9b90611c05565b80601f0160208091040260200160405190810160405280929190818152602001828054610ac790611c05565b8015610b145780601f10610ae957610100808354040283529160200191610b14565b820191906000526020600020905b815481529060010190602001808311610af757829003601f168201915b5050505050815250509050600081602001511480610b405750600082604001516001901b826020015116145b610b7f576040517f08c379a0000000000000000000000000000000000000000000000000000000008152600401610b7690611d8d565b60405180910390fd5b671bc16d674ec800008310610bc9576040517f08c379a0000000000000000000000000000000000000000000000000000000008152600401610bc090611e1f565b60405180910390fd5b816000015173ffffffffffffffffffffffffffffffffffffffff163373ffffffffffffffffffffffffffffffffffffffff1603610c3b576040517f08c379a0000000000000000000000000000000000000000000000000000000008152600401610c3290611e8b565b60405180910390fd5b81604001516001901b600860003373ffffffffffffffffffffffffffffffffffffffff1673ffffffffffffffffffffffffffffffffffffffff16815260200190815260200160002060010160008282541792505081905550610ca18260000151846111a8565b610cb3336702c68af0bb1400006111a8565b7f7ee4a37341c35f44b067a5fa7320fbc16ffcbf0d852cfba271d76b78774ebb6e8484604051610ce4929190611eab565b60405180910390a17f7ee4a37341c35f44b067a5fa7320fbc16ffcbf0d852cfba271d76b78774ebb6e600860003373ffffffffffffffffffffffffffffffffffffffff1673ffffffffffffffffffffffffffffffffffffffff1681526020019081526020016000206003016702c68af0bb140000604051610d66929190611fb9565b60405180910390a150505050565b600080610d7f611005565b9050610d8c8185856110b4565b600191505092915050565b600660009054906101000a900473ffffffffffffffffffffffffffffffffffffffff1673ffffffffffffffffffffffffffffffffffffffff163373ffffffffffffffffffffffffffffffffffffffff161480610e405750600560009054906101000a900473ffffffffffffffffffffffffffffffffffffffff1673ffffffffffffffffffffffffffffffffffffffff163373ffffffffffffffffffffffffffffffffffffffff16145b610e7f576040517f08c379a0000000000000000000000000000000000000000000000000000000008152600401610e7690611ca8565b60405180910390fd5b600073ffffffffffffffffffffffffffffffffffffffff16600783604051610ea79190611d04565b908152602001604051809103902060000160009054906101000a900473ffffffffffffffffffffffffffffffffffffffff1673ffffffffffffffffffffffffffffffffffffffff1603610f2f576040517f08c379a0000000000000000000000000000000000000000000000000000000008152600401610f2690612035565b60405180910390fd5b610f7a600783604051610f429190611d04565b908152602001604051809103902060000160009054906101000a900473ffffffffffffffffffffffffffffffffffffffff16826111a8565b5050565b6000600160008473ffffffffffffffffffffffffffffffffffffffff1673ffffffffffffffffffffffffffffffffffffffff16815260200190815260200160002060008373ffffffffffffffffffffffffffffffffffffffff1673ffffffffffffffffffffffffffffffffffffffff16815260200190815260200160002054905092915050565b600033905090565b61101a838383600161122a565b505050565b600061102b8484610f7e565b90507fffffffffffffffffffffffffffffffffffffffffffffffffffffffffffffffff8110156110ae578181101561109e578281836040517ffb8f41b200000000000000000000000000000000000000000000000000000000815260040161109593929190612064565b60405180910390fd5b6110ad8484848403600061122a565b5b50505050565b600073ffffffffffffffffffffffffffffffffffffffff168373ffffffffffffffffffffffffffffffffffffffff16036111265760006040517f96c6fd1e00000000000000000000000000000000000000000000000000000000815260040161111d919061209b565b60405180910390fd5b600073ffffffffffffffffffffffffffffffffffffffff168273ffffffffffffffffffffffffffffffffffffffff16036111985760006040517fec442f0500000000000000000000000000000000000000000000000000000000815260040161118f919061209b565b60405180910390fd5b6111a3838383611401565b505050565b600073ffffffffffffffffffffffffffffffffffffffff168273ffffffffffffffffffffffffffffffffffffffff160361121a5760006040517fec442f05000000000000000000000000000000000000000000000000000000008152600401611211919061209b565b60405180910390fd5b61122660008383611401565b5050565b600073ffffffffffffffffffffffffffffffffffffffff168473ffffffffffffffffffffffffffffffffffffffff160361129c5760006040517fe602df05000000000000000000000000000000000000000000000000000000008152600401611293919061209b565b60405180910390fd5b600073ffffffffffffffffffffffffffffffffffffffff168373ffffffffffffffffffffffffffffffffffffffff160361130e5760006040517f94280d62000000000000000000000000000000000000000000000000000000008152600401611305919061209b565b60405180910390fd5b81600160008673ffffffffffffffffffffffffffffffffffffffff1673ffffffffffffffffffffffffffffffffffffffff16815260200190815260200160002060008573ffffffffffffffffffffffffffffffffffffffff1673ffffffffffffffffffffffffffffffffffffffff1681526020019081526020016000208190555080156113fb578273ffffffffffffffffffffffffffffffffffffffff168473ffffffffffffffffffffffffffffffffffffffff167f8c5be1e5ebec7d5bd14f71427d1e84f3dd0314c0f7b2291e5b200ac8c7c3b925846040516113f29190611805565b60405180910390a35b50505050565b600073ffffffffffffffffffffffffffffffffffffffff168373ffffffffffffffffffffffffffffffffffffffff160361145357806002600082825461144791906120e5565b92505081905550611526565b60008060008573ffffffffffffffffffffffffffffffffffffffff1673ffffffffffffffffffffffffffffffffffffffff168152602001908152602001600020549050818110156114df578381836040517fe450d38c0000000000000000000000000000000000000000000000000000000081526004016114d693929190612064565b60405180910390fd5b8181036000808673ffffffffffffffffffffffffffffffffffffffff1673ffffffffffffffffffffffffffffffffffffffff16815260200190815260200160002081905550505b600073ffffffffffffffffffffffffffffffffffffffff168273ffffffffffffffffffffffffffffffffffffffff160361156f57806002600082825403925050819055506115bc565b806000808473ffffffffffffffffffffffffffffffffffffffff1673ffffffffffffffffffffffffffffffffffffffff168152602001908152602001600020600082825401925050819055505b8173ffffffffffffffffffffffffffffffffffffffff168373ffffffffffffffffffffffffffffffffffffffff167fddf252ad1be2c89b69c2b068fc378daa952ba7f163c4a11628f55a4df523b3ef836040516116199190611805565b60405180910390a3505050565b600081519050919050565b600082825260208201905092915050565b60005b83811015611660578082015181840152602081019050611645565b60008484015250505050565b6000601f19601f8301169050919050565b600061168882611626565b6116928185611631565b93506116a2818560208601611642565b6116ab8161166c565b840191505092915050565b600060208201905081810360008301526116d0818461167d565b905092915050565b6000604051905090565b600080fd5b600080fd5b600073ffffffffffffffffffffffffffffffffffffffff82169050919050565b6000611717826116ec565b9050919050565b6117278161170c565b811461173257600080fd5b50565b6000813590506117448161171e565b92915050565b6000819050919050565b61175d8161174a565b811461176857600080fd5b50565b60008135905061177a81611754565b92915050565b60008060408385031215611797576117966116e2565b5b60006117a585828601611735565b92505060206117b68582860161176b565b9150509250929050565b60008115159050919050565b6117d5816117c0565b82525050565b60006020820190506117f060008301846117cc565b92915050565b6117ff8161174a565b82525050565b600060208201905061181a60008301846117f6565b92915050565b600080600060608486031215611839576118386116e2565b5b600061184786828701611735565b935050602061185886828701611735565b92505060406118698682870161176b565b9150509250925092565b600060ff82169050919050565b61188981611873565b82525050565b60006020820190506118a46000830184611880565b92915050565b6000602082840312156118c0576118bf6116e2565b5b60006118ce84828501611735565b91505092915050565b600081519050919050565b600082825260208201905092915050565b6000819050602082019050919050565b600082825260208201905092915050565b600061191f82611626565b6119298185611903565b9350611939818560208601611642565b6119428161166c565b840191505092915050565b60006119598383611914565b905092915050565b6000602082019050919050565b6000611979826118d7565b61198381856118e2565b935083602082028501611995856118f3565b8060005b858110156119d157848403895281516119b2858261194d565b94506119bd83611961565b925060208a01995050600181019050611999565b50829750879550505050505092915050565b600060208201905081810360008301526119fd818461196e565b905092915050565b600080fd5b600080fd5b7f4e487b7100000000000000000000000000000000000000000000000000000000600052604160045260246000fd5b611a478261166c565b810181811067ffffffffffffffff82111715611a6657611a65611a0f565b5b80604052505050565b6000611a796116d8565b9050611a858282611a3e565b919050565b600067ffffffffffffffff821115611aa557611aa4611a0f565b5b611aae8261166c565b9050602081019050919050565b82818337600083830152505050565b6000611add611ad884611a8a565b611a6f565b905082815260208101848484011115611af957611af8611a0a565b5b611b04848285611abb565b509392505050565b600082601f830112611b2157611b20611a05565b5b8135611b31848260208601611aca565b91505092915050565b60008060408385031215611b5157611b506116e2565b5b600083013567ffffffffffffffff811115611b6f57611b6e6116e7565b5b611b7b85828601611b0c565b9250506020611b8c8582860161176b565b9150509250929050565b60008060408385031215611bad57611bac6116e2565b5b6000611bbb85828601611735565b9250506020611bcc85828601611735565b9150509250929050565b7f4e487b7100000000000000000000000000000000000000000000000000000000600052602260045260246000fd5b60006002820490506001821680611c1d57607f821691505b602082108103611c3057611c2f611bd6565b5b50919050565b7f547572696e673a204d6574686f642063616e206f6e6c792062652063616c6c6560008201527f642062792074656163686572206f72206f776e65720000000000000000000000602082015250565b6000611c92603583611631565b9150611c9d82611c36565b604082019050919050565b60006020820190508181036000830152611cc181611c85565b9050919050565b600081905092915050565b6000611cde82611626565b611ce88185611cc8565b9350611cf8818560208601611642565b80840191505092915050565b6000611d108284611cd3565b915081905092915050565b7f547572696e673a2043616e6e6f7420766f7465207477696365206f6e2074686560008201527f2073616d65207573657221000000000000000000000000000000000000000000602082015250565b6000611d77602b83611631565b9150611d8282611d1b565b604082019050919050565b60006020820190508181036000830152611da681611d6a565b9050919050565b7f547572696e673a2043616e6e6f7420766f7465206d6f7265207468616e20322060008201527f5452430000000000000000000000000000000000000000000000000000000000602082015250565b6000611e09602383611631565b9150611e1482611dad565b604082019050919050565b60006020820190508181036000830152611e3881611dfc565b9050919050565b7f547572696e673a2043616e6e6f7420766f7465206f6e20796f757273656c6621600082015250565b6000611e75602083611631565b9150611e8082611e3f565b602082019050919050565b60006020820190508181036000830152611ea481611e68565b9050919050565b60006040820190508181036000830152611ec5818561167d565b9050611ed460208301846117f6565b9392505050565b60008190508160005260206000209050919050565b60008154611efd81611c05565b611f078186611631565b94506001821660008114611f225760018114611f3857611f6b565b60ff198316865281151560200286019350611f6b565b611f4185611edb565b60005b83811015611f6357815481890152600182019150602081019050611f44565b808801955050505b50505092915050565b6000819050919050565b6000819050919050565b6000611fa3611f9e611f9984611f74565b611f7e565b61174a565b9050919050565b611fb381611f88565b82525050565b60006040820190508181036000830152611fd38185611ef0565b9050611fe26020830184611faa565b9392505050565b7f547572696e673a204163636f756e7420636f6465206e6f7420666f756e642100600082015250565b600061201f601f83611631565b915061202a82611fe9565b602082019050919050565b6000602082019050818103600083015261204e81612012565b9050919050565b61205e8161170c565b82525050565b60006060820190506120796000830186612055565b61208660208301856117f6565b61209360408301846117f6565b949350505050565b60006020820190506120b06000830184612055565b92915050565b7f4e487b7100000000000000000000000000000000000000000000000000000000600052601160045260246000fd5b60006120f08261174a565b91506120fb8361174a565b9250828201905080821115612113576121126120b6565b5b9291505056fea2646970667358221220bb296cef6e0cf0c0a9cf903722beb6a4276a26aaf3bd23a20589cd4f0006b95664736f6c634300081c0033",
  "linkReferences": {},
  "deployedLinkReferences": {}
}