{
  "_format": "hh-sol-artifact-1",
  "contractName": "Turing",
  "sourceName": "contracts/Turing.sol",
  "abi": [
    {
      "inputs": [],
      "stateMutability": "nonpayable",
      "type": "constructor"
    },
    {
      "inputs": [
        {
          "internalType": "address",
          "name": "spender",
          "type": "address"
        },
        {
          "internalType": "uint256",
          "name": "allowance",
          "type": "uint256"
        },
        {
          "internalType": "uint256",
          "name": "needed",
          "type": "uint256"
        }
      ],
      "name": "ERC20InsufficientAllowance",
      "type": "error"
    },
    {
      "inputs": [
        {
          "internalType": "address",
          "name": "sender",
          "type": "address"
        },
        {
          "internalType": "uint256",
          "name": "balance",
          "type": "uint256"
        },
        {
          "internalType": "uint256",
          "name": "needed",
          "type": "uint256"
        }
      ],
      "name": "ERC20InsufficientBalance",
      "type": "error"
    },
    {
      "inputs": [
        {
          "internalType": "address",
          "name": "approver",
          "type": "address"
        }
      ],
      "name": "ERC20InvalidApprover",
      "type": "error"
    },
    {
      "inputs": [
        {
          "internalType": "address",
          "name": "receiver",
          "type": "address"
        }
      ],
      "name": "ERC20InvalidReceiver",
      "type": "error"
    },
    {
      "inputs": [
        {
          "internalType": "address",
          "name": "sender",
          "type": "address"
        }
      ],
      "name": "ERC20InvalidSender",
      "type": "error"
    },
    {
      "inputs": [
        {
          "internalType": "address",
          "name": "spender",
          "type": "address"
        }
      ],
      "name": "ERC20InvalidSpender",
      "type": "error"
    },
    {
      "anonymous": false,
      "inputs": [
        {
          "indexed": true,
          "internalType": "address",
          "name": "owner",
          "type": "address"
        },
        {
          "indexed": true,
          "internalType": "address",
          "name": "spender",
          "type": "address"
        },
        {
          "indexed": false,
          "internalType": "uint256",
          "name": "value",
          "type": "uint256"
        }
      ],
      "name": "Approval",
      "type": "event"
    },
    {
      "anonymous": false,
      "inputs": [
        {
          "indexed": false,
          "internalType": "string",
          "name": "name",
          "type": "string"
        },
        {
          "indexed": false,
          "internalType": "uint256",
          "name": "amount",
          "type": "uint256"
        }
      ],
      "name": "OnVote",
      "type": "event"
    },
    {
      "anonymous": false,
      "inputs": [
        {
          "indexed": true,
          "internalType": "address",
          "name": "from",
          "type": "address"
        },
        {
          "indexed": true,
          "internalType": "address",
          "name": "to",
          "type": "address"
        },
        {
          "indexed": false,
          "internalType": "uint256",
          "name": "value",
          "type": "uint256"
        }
      ],
      "name": "Transfer",
      "type": "event"
    },
    {
      "inputs": [
        {
          "internalType": "address",
          "name": "owner",
          "type": "address"
        },
        {
          "internalType": "address",
          "name": "spender",
          "type": "address"
        }
      ],
      "name": "allowance",
      "outputs": [
        {
          "internalType": "uint256",
          "name": "",
          "type": "uint256"
        }
      ],
      "stateMutability": "view",
      "type": "function"
    },
    {
      "inputs": [
        {
          "internalType": "address",
          "name": "spender",
          "type": "address"
        },
        {
          "internalType": "uint256",
          "name": "value",
          "type": "uint256"
        }
      ],
      "name": "approve",
      "outputs": [
        {
          "internalType": "bool",
          "name": "",
          "type": "bool"
        }
      ],
      "stateMutability": "nonpayable",
      "type": "function"
    },
    {
      "inputs": [
        {
          "internalType": "address",
          "name": "account",
          "type": "address"
        }
      ],
      "name": "balanceOf",
      "outputs": [
        {
          "internalType": "uint256",
          "name": "",
          "type": "uint256"
        }
      ],
      "stateMutability": "view",
      "type": "function"
    },
    {
      "inputs": [],
      "name": "decimals",
      "outputs": [
        {
          "internalType": "uint8",
          "name": "",
          "type": "uint8"
        }
      ],
      "stateMutability": "view",
      "type": "function"
    },
    {
      "inputs": [],
      "name": "getAllAuthorizedUsers",
      "outputs": [
        {
          "internalType": "string[]",
          "name": "",
          "type": "string[]"
        }
      ],
      "stateMutability": "view",
      "type": "function"
    },
    {
      "inputs": [],
      "name": "getLoggedUser",
      "outputs": [
        {
          "internalType": "string",
          "name": "",
          "type": "string"
        }
      ],
      "stateMutability": "view",
      "type": "function"
    },
    {
      "inputs": [
        {
          "internalType": "string",
          "name": "name",
          "type": "string"
        },
        {
          "internalType": "uint256",
          "name": "amount",
          "type": "uint256"
        }
      ],
      "name": "issueToken",
      "outputs": [],
      "stateMutability": "nonpayable",
      "type": "function"
    },
    {
      "inputs": [],
      "name": "name",
      "outputs": [
        {
          "internalType": "string",
          "name": "",
          "type": "string"
        }
      ],
      "stateMutability": "view",
      "type": "function"
    },
    {
      "inputs": [],
      "name": "symbol",
      "outputs": [
        {
          "internalType": "string",
          "name": "",
          "type": "string"
        }
      ],
      "stateMutability": "view",
      "type": "function"
    },
    {
      "inputs": [],
      "name": "teacherAddress",
      "outputs": [
        {
          "internalType": "address",
          "name": "",
          "type": "address"
        }
      ],
      "stateMutability": "view",
      "type": "function"
    },
    {
      "inputs": [],
      "name": "totalSupply",
      "outputs": [
        {
          "internalType": "uint256",
          "name": "",
          "type": "uint256"
        }
      ],
      "stateMutability": "view",
      "type": "function"
    },
    {
      "inputs": [
        {
          "internalType": "address",
          "name": "to",
          "type": "address"
        },
        {
          "internalType": "uint256",
          "name": "value",
          "type": "uint256"
        }
      ],
      "name": "transfer",
      "outputs": [
        {
          "internalType": "bool",
          "name": "",
          "type": "bool"
        }
      ],
      "stateMutability": "nonpayable",
      "type": "function"
    },
    {
      "inputs": [
        {
          "internalType": "address",
          "name": "from",
          "type": "address"
        },
        {
          "internalType": "address",
          "name": "to",
          "type": "address"
        },
        {
          "internalType": "uint256",
          "name": "value",
          "type": "uint256"
        }
      ],
      "name": "transferFrom",
      "outputs": [
        {
          "internalType": "bool",
          "name": "",
          "type": "bool"
        }
      ],
      "stateMutability": "nonpayable",
      "type": "function"
    },
    {
      "inputs": [
        {
          "internalType": "string",
          "name": "name",
          "type": "string"
        },
        {
          "internalType": "uint256",
          "name": "amount",
          "type": "uint256"
        }
      ],
      "name": "vote",
      "outputs": [],
      "stateMutability": "nonpayable",
      "type": "function"
    },
    {
      "inputs": [],
      "name": "votingActive",
      "outputs": [
        {
          "internalType": "bool",
          "name": "",
          "type": "bool"
        }
      ],
      "stateMutability": "view",
      "type": "function"
    },
    {
      "inputs": [],
      "name": "votingOff",
      "outputs": [],
      "stateMutability": "nonpayable",
      "type": "function"
    },
    {
      "inputs": [],
      "name": "votingOn",
      "outputs": [],
      "stateMutability": "nonpayable",
      "type": "function"
    }
  ],
  "bytecode": "0x608060405273502542668af09fa7aea52174b9965a7799343df7600660006101000a81548173ffffffffffffffffffffffffffffffffffffffff021916908373ffffffffffffffffffffffffffffffffffffffff1602179055506000600a556001600b60006101000a81548160ff02191690831515021790555034801561008557600080fd5b506040518060400160405280600681526020017f547572696e6700000000000000000000000000000000000000000000000000008152506040518060400160405280600381526020017f545243000000000000000000000000000000000000000000000000000000000081525081600390816101019190610b46565b5080600490816101119190610b46565b50505033600560006101000a81548173ffffffffffffffffffffffffffffffffffffffff021916908373ffffffffffffffffffffffffffffffffffffffff1602179055506101ae6040518060400160405280600581526020017f4b6576696e00000000000000000000000000000000000000000000000000000081525073f39fd6e51aad88f6f4ce6ab8827279cfffb922666106ea60201b60201c565b6102076040518060400160405280600581526020017f6e6f6d65320000000000000000000000000000000000000000000000000000008152507370997970c51812dc3a010c7d01b50e0d17dc79c86106ea60201b60201c565b6102606040518060400160405280600581526020017f6e6f6d6533000000000000000000000000000000000000000000000000000000815250733c44cdddb6a900fa2b585dd299e03d12fa4293bc6106ea60201b60201c565b6102b96040518060400160405280600581526020017f6e6f6d65340000000000000000000000000000000000000000000000000000008152507390f79bf6eb2c4f870365e785982e1f101e93b9066106ea60201b60201c565b6103126040518060400160405280600581526020017f6e6f6d65350000000000000000000000000000000000000000000000000000008152507315d34aaf54267db7d7c367839aaf71a00a2c6a656106ea60201b60201c565b61036b6040518060400160405280600a81526020017f4163636f756e742023390000000000000000000000000000000000000000000081525073a0ee7a142d267c1f36714e4a8f75612f20a797206106ea60201b60201c565b6103c46040518060400160405280600b81526020017f4163636f756e742023313000000000000000000000000000000000000000000081525073bcd4042de499d14e55001ccbb24a551f3b9540966106ea60201b60201c565b61041d6040518060400160405280600b81526020017f4163636f756e74202331310000000000000000000000000000000000000000008152507371be63f3384f5fb98995898a86b02fb2426c57886106ea60201b60201c565b6104766040518060400160405280600b81526020017f4163636f756e742023313200000000000000000000000000000000000000000081525073fabb0ac9d68b0b445fb7357272ff202c5651694a6106ea60201b60201c565b6104cf6040518060400160405280600b81526020017f4163636f756e7420233133000000000000000000000000000000000000000000815250731cbd3b2770909d4e10f157cabc84c7264073c9ec6106ea60201b60201c565b6105286040518060400160405280600b81526020017f4163636f756e742023313400000000000000000000000000000000000000000081525073df3e18d64bc6a983f673ab319ccae4f1a57c70976106ea60201b60201c565b6105816040518060400160405280600b81526020017f4163636f756e742023313500000000000000000000000000000000000000000081525073cd3b766ccdd6ae721141f452c550ca635964ce716106ea60201b60201c565b6105da6040518060400160405280600b81526020017f4163636f756e7420233136000000000000000000000000000000000000000000815250732546bcd3c84621e976d8185a91a922ae77ecec306106ea60201b60201c565b6106336040518060400160405280600b81526020017f4163636f756e742023313700000000000000000000000000000000000000000081525073bda5747bfd65f08deb54cb465eb87d40e51b197e6106ea60201b60201c565b61068c6040518060400160405280600b81526020017f4163636f756e742023313800000000000000000000000000000000000000000081525073dd2fd4581271e230360230f9337d5c0430bf44c06106ea60201b60201c565b6106e56040518060400160405280600b81526020017f4163636f756e7420233139000000000000000000000000000000000000000000815250738626f6940e2eb28930efb4cef49b2d1f2c9c11996106ea60201b60201c565b610cf8565b60405180608001604052808273ffffffffffffffffffffffffffffffffffffffff16815260200160008152602001600a548152602001838152506007836040516107349190610c7e565b908152602001604051809103902060008201518160000160006101000a81548173ffffffffffffffffffffffffffffffffffffffff021916908373ffffffffffffffffffffffffffffffffffffffff160217905550602082015181600101556040820151816002015560608201518160030190816107b29190610b46565b5090505060405180608001604052808273ffffffffffffffffffffffffffffffffffffffff16815260200160008152602001600a54815260200183815250600860008373ffffffffffffffffffffffffffffffffffffffff1673ffffffffffffffffffffffffffffffffffffffff16815260200190815260200160002060008201518160000160006101000a81548173ffffffffffffffffffffffffffffffffffffffff021916908373ffffffffffffffffffffffffffffffffffffffff1602179055506020820151816001015560408201518160020155606082015181600301908161089f9190610b46565b509050506001600a60008282546108b69190610cc4565b925050819055506009829080600181540180825580915050600190039060005260206000200160009091909190915090816108f19190610b46565b505050565b600081519050919050565b7f4e487b7100000000000000000000000000000000000000000000000000000000600052604160045260246000fd5b7f4e487b7100000000000000000000000000000000000000000000000000000000600052602260045260246000fd5b6000600282049050600182168061097757607f821691505b60208210810361098a57610989610930565b5b50919050565b60008190508160005260206000209050919050565b60006020601f8301049050919050565b600082821b905092915050565b6000600883026109f27fffffffffffffffffffffffffffffffffffffffffffffffffffffffffffffffff826109b5565b6109fc86836109b5565b95508019841693508086168417925050509392505050565b6000819050919050565b6000819050919050565b6000610a43610a3e610a3984610a14565b610a1e565b610a14565b9050919050565b6000819050919050565b610a5d83610a28565b610a71610a6982610a4a565b8484546109c2565b825550505050565b600090565b610a86610a79565b610a91818484610a54565b505050565b5b81811015610ab557610aaa600082610a7e565b600181019050610a97565b5050565b601f821115610afa57610acb81610990565b610ad4846109a5565b81016020851015610ae3578190505b610af7610aef856109a5565b830182610a96565b50505b505050565b600082821c905092915050565b6000610b1d60001984600802610aff565b1980831691505092915050565b6000610b368383610b0c565b9150826002028217905092915050565b610b4f826108f6565b67ffffffffffffffff811115610b6857610b67610901565b5b610b72825461095f565b610b7d828285610ab9565b600060209050601f831160018114610bb05760008415610b9e578287015190505b610ba88582610b2a565b865550610c10565b601f198416610bbe86610990565b60005b82811015610be657848901518255600182019150602085019450602081019050610bc1565b86831015610c035784890151610bff601f891682610b0c565b8355505b6001600288020188555050505b505050505050565b600081905092915050565b60005b83811015610c41578082015181840152602081019050610c26565b60008484015250505050565b6000610c58826108f6565b610c628185610c18565b9350610c72818560208601610c23565b80840191505092915050565b6000610c8a8284610c4d565b915081905092915050565b7f4e487b7100000000000000000000000000000000000000000000000000000000600052601160045260246000fd5b6000610ccf82610a14565b9150610cda83610a14565b9250828201905080821115610cf257610cf1610c95565b5b92915050565b61219e80610d076000396000f3fe608060405234801561001057600080fd5b506004361061010b5760003560e01c806360a3ae06116100a25780639c28fdf8116100715780639c28fdf814610286578063a6385803146102a4578063a9059cbb146102c0578063c683e0f4146102f0578063dd62ed3e1461030c5761010b565b806360a3ae061461021057806370a082311461021a57806384823cb51461024a57806395d89b41146102685761010b565b806323b872dd116100de57806323b872dd14610186578063313ce567146101b6578063408e2727146101d45780634cf8461e146101f25761010b565b806306fdde0314610110578063095ea7b31461012e57806318160ddd1461015e57806320949bb41461017c575b600080fd5b61011861033c565b6040516101259190611705565b60405180910390f35b610148600480360381019061014391906117cf565b6103ce565b604051610155919061182a565b60405180910390f35b6101666103f1565b6040516101739190611854565b60405180910390f35b6101846103fb565b005b6101a0600480360381019061019b919061186f565b610500565b6040516101ad919061182a565b60405180910390f35b6101be61052f565b6040516101cb91906118de565b60405180910390f35b6101dc610538565b6040516101e9919061182a565b60405180910390f35b6101fa61054b565b6040516102079190611705565b60405180910390f35b61021861061d565b005b610234600480360381019061022f91906118f9565b610722565b6040516102419190611854565b60405180910390f35b61025261076a565b60405161025f9190611a32565b60405180910390f35b610270610843565b60405161027d9190611705565b60405180910390f35b61028e6108d5565b60405161029b9190611a63565b60405180910390f35b6102be60048036038101906102b99190611bb3565b6108fb565b005b6102da60048036038101906102d591906117cf565b610dc3565b6040516102e7919061182a565b60405180910390f35b61030a60048036038101906103059190611bb3565b610de6565b005b61032660048036038101906103219190611c0f565b610fcd565b6040516103339190611854565b60405180910390f35b60606003805461034b90611c7e565b80601f016020809104026020016040519081016040528092919081815260200182805461037790611c7e565b80156103c45780601f10610399576101008083540402835291602001916103c4565b820191906000526020600020905b8154815290600101906020018083116103a757829003601f168201915b5050505050905090565b6000806103d9611054565b90506103e681858561105c565b600191505092915050565b6000600254905090565b600660009054906101000a900473ffffffffffffffffffffffffffffffffffffffff1673ffffffffffffffffffffffffffffffffffffffff163373ffffffffffffffffffffffffffffffffffffffff1614806104a45750600560009054906101000a900473ffffffffffffffffffffffffffffffffffffffff1673ffffffffffffffffffffffffffffffffffffffff163373ffffffffffffffffffffffffffffffffffffffff16145b6104e3576040517f08c379a00000000000000000000000000000000000000000000000000000000081526004016104da90611d21565b60405180910390fd5b6001600b60006101000a81548160ff021916908315150217905550565b60008061050b611054565b905061051885828561106e565b610523858585611103565b60019150509392505050565b60006012905090565b600b60009054906101000a900460ff1681565b6060600860003373ffffffffffffffffffffffffffffffffffffffff1673ffffffffffffffffffffffffffffffffffffffff168152602001908152602001600020600301805461059a90611c7e565b80601f01602080910402602001604051908101604052809291908181526020018280546105c690611c7e565b80156106135780601f106105e857610100808354040283529160200191610613565b820191906000526020600020905b8154815290600101906020018083116105f657829003601f168201915b5050505050905090565b600660009054906101000a900473ffffffffffffffffffffffffffffffffffffffff1673ffffffffffffffffffffffffffffffffffffffff163373ffffffffffffffffffffffffffffffffffffffff1614806106c65750600560009054906101000a900473ffffffffffffffffffffffffffffffffffffffff1673ffffffffffffffffffffffffffffffffffffffff163373ffffffffffffffffffffffffffffffffffffffff16145b610705576040517f08c379a00000000000000000000000000000000000000000000000000000000081526004016106fc90611d21565b60405180910390fd5b6000600b60006101000a81548160ff021916908315150217905550565b60008060008373ffffffffffffffffffffffffffffffffffffffff1673ffffffffffffffffffffffffffffffffffffffff168152602001908152602001600020549050919050565b60606009805480602002602001604051908101604052809291908181526020016000905b8282101561083a5783829060005260206000200180546107ad90611c7e565b80601f01602080910402602001604051908101604052809291908181526020018280546107d990611c7e565b80156108265780601f106107fb57610100808354040283529160200191610826565b820191906000526020600020905b81548152906001019060200180831161080957829003601f168201915b50505050508152602001906001019061078e565b50505050905090565b60606004805461085290611c7e565b80601f016020809104026020016040519081016040528092919081815260200182805461087e90611c7e565b80156108cb5780601f106108a0576101008083540402835291602001916108cb565b820191906000526020600020905b8154815290600101906020018083116108ae57829003601f168201915b5050505050905090565b600660009054906101000a900473ffffffffffffffffffffffffffffffffffffffff1681565b600060078360405161090d9190611d7d565b90815260200160405180910390206040518060800160405290816000820160009054906101000a900473ffffffffffffffffffffffffffffffffffffffff1673ffffffffffffffffffffffffffffffffffffffff1673ffffffffffffffffffffffffffffffffffffffff16815260200160018201548152602001600282015481526020016003820180546109a090611c7e565b80601f01602080910402602001604051908101604052809291908181526020018280546109cc90611c7e565b8015610a195780601f106109ee57610100808354040283529160200191610a19565b820191906000526020600020905b8154815290600101906020018083116109fc57829003601f168201915b50505050508152505090506000600860003373ffffffffffffffffffffffffffffffffffffffff1673ffffffffffffffffffffffffffffffffffffffff1681526020019081526020016000206040518060800160405290816000820160009054906101000a900473ffffffffffffffffffffffffffffffffffffffff1673ffffffffffffffffffffffffffffffffffffffff1673ffffffffffffffffffffffffffffffffffffffff1681526020016001820154815260200160028201548152602001600382018054610aea90611c7e565b80601f0160208091040260200160405190810160405280929190818152602001828054610b1690611c7e565b8015610b635780601f10610b3857610100808354040283529160200191610b63565b820191906000526020600020905b815481529060010190602001808311610b4657829003601f168201915b5050505050815250509050600081602001511480610b8f5750600082604001516001901b826020015116145b610bce576040517f08c379a0000000000000000000000000000000000000000000000000000000008152600401610bc590611e06565b60405180910390fd5b671bc16d674ec800008310610c18576040517f08c379a0000000000000000000000000000000000000000000000000000000008152600401610c0f90611e98565b60405180910390fd5b816000015173ffffffffffffffffffffffffffffffffffffffff163373ffffffffffffffffffffffffffffffffffffffff1603610c8a576040517f08c379a0000000000000000000000000000000000000000000000000000000008152600401610c8190611f04565b60405180910390fd5b81604001516001901b600860003373ffffffffffffffffffffffffffffffffffffffff1673ffffffffffffffffffffffffffffffffffffffff16815260200190815260200160002060010160008282541792505081905550610cf08260000151846111f7565b610d02336702c68af0bb1400006111f7565b7f7ee4a37341c35f44b067a5fa7320fbc16ffcbf0d852cfba271d76b78774ebb6e8484604051610d33929190611f24565b60405180910390a17f7ee4a37341c35f44b067a5fa7320fbc16ffcbf0d852cfba271d76b78774ebb6e600860003373ffffffffffffffffffffffffffffffffffffffff1673ffffffffffffffffffffffffffffffffffffffff1681526020019081526020016000206003016702c68af0bb140000604051610db5929190612032565b60405180910390a150505050565b600080610dce611054565b9050610ddb818585611103565b600191505092915050565b600660009054906101000a900473ffffffffffffffffffffffffffffffffffffffff1673ffffffffffffffffffffffffffffffffffffffff163373ffffffffffffffffffffffffffffffffffffffff161480610e8f5750600560009054906101000a900473ffffffffffffffffffffffffffffffffffffffff1673ffffffffffffffffffffffffffffffffffffffff163373ffffffffffffffffffffffffffffffffffffffff16145b610ece576040517f08c379a0000000000000000000000000000000000000000000000000000000008152600401610ec590611d21565b60405180910390fd5b600073ffffffffffffffffffffffffffffffffffffffff16600783604051610ef69190611d7d565b908152602001604051809103902060000160009054906101000a900473ffffffffffffffffffffffffffffffffffffffff1673ffffffffffffffffffffffffffffffffffffffff1603610f7e576040517f08c379a0000000000000000000000000000000000000000000000000000000008152600401610f75906120ae565b60405180910390fd5b610fc9600783604051610f919190611d7d565b908152602001604051809103902060000160009054906101000a900473ffffffffffffffffffffffffffffffffffffffff16826111f7565b5050565b6000600160008473ffffffffffffffffffffffffffffffffffffffff1673ffffffffffffffffffffffffffffffffffffffff16815260200190815260200160002060008373ffffffffffffffffffffffffffffffffffffffff1673ffffffffffffffffffffffffffffffffffffffff16815260200190815260200160002054905092915050565b600033905090565b6110698383836001611279565b505050565b600061107a8484610fcd565b90507fffffffffffffffffffffffffffffffffffffffffffffffffffffffffffffffff8110156110fd57818110156110ed578281836040517ffb8f41b20000000000000000000000000000000000000000000000000000000081526004016110e4939291906120ce565b60405180910390fd5b6110fc84848484036000611279565b5b50505050565b600073ffffffffffffffffffffffffffffffffffffffff168373ffffffffffffffffffffffffffffffffffffffff16036111755760006040517f96c6fd1e00000000000000000000000000000000000000000000000000000000815260040161116c9190611a63565b60405180910390fd5b600073ffffffffffffffffffffffffffffffffffffffff168273ffffffffffffffffffffffffffffffffffffffff16036111e75760006040517fec442f050000000000000000000000000000000000000000000000000000000081526004016111de9190611a63565b60405180910390fd5b6111f2838383611450565b505050565b600073ffffffffffffffffffffffffffffffffffffffff168273ffffffffffffffffffffffffffffffffffffffff16036112695760006040517fec442f050000000000000000000000000000000000000000000000000000000081526004016112609190611a63565b60405180910390fd5b61127560008383611450565b5050565b600073ffffffffffffffffffffffffffffffffffffffff168473ffffffffffffffffffffffffffffffffffffffff16036112eb5760006040517fe602df050000000000000000000000000000000000000000000000000000000081526004016112e29190611a63565b60405180910390fd5b600073ffffffffffffffffffffffffffffffffffffffff168373ffffffffffffffffffffffffffffffffffffffff160361135d5760006040517f94280d620000000000000000000000000000000000000000000000000000000081526004016113549190611a63565b60405180910390fd5b81600160008673ffffffffffffffffffffffffffffffffffffffff1673ffffffffffffffffffffffffffffffffffffffff16815260200190815260200160002060008573ffffffffffffffffffffffffffffffffffffffff1673ffffffffffffffffffffffffffffffffffffffff16815260200190815260200160002081905550801561144a578273ffffffffffffffffffffffffffffffffffffffff168473ffffffffffffffffffffffffffffffffffffffff167f8c5be1e5ebec7d5bd14f71427d1e84f3dd0314c0f7b2291e5b200ac8c7c3b925846040516114419190611854565b60405180910390a35b50505050565b600073ffffffffffffffffffffffffffffffffffffffff168373ffffffffffffffffffffffffffffffffffffffff16036114a25780600260008282546114969190612134565b92505081905550611575565b60008060008573ffffffffffffffffffffffffffffffffffffffff1673ffffffffffffffffffffffffffffffffffffffff1681526020019081526020016000205490508181101561152e578381836040517fe450d38c000000000000000000000000000000000000000000000000000000008152600401611525939291906120ce565b60405180910390fd5b8181036000808673ffffffffffffffffffffffffffffffffffffffff1673ffffffffffffffffffffffffffffffffffffffff16815260200190815260200160002081905550505b600073ffffffffffffffffffffffffffffffffffffffff168273ffffffffffffffffffffffffffffffffffffffff16036115be578060026000828254039250508190555061160b565b806000808473ffffffffffffffffffffffffffffffffffffffff1673ffffffffffffffffffffffffffffffffffffffff168152602001908152602001600020600082825401925050819055505b8173ffffffffffffffffffffffffffffffffffffffff168373ffffffffffffffffffffffffffffffffffffffff167fddf252ad1be2c89b69c2b068fc378daa952ba7f163c4a11628f55a4df523b3ef836040516116689190611854565b60405180910390a3505050565b600081519050919050565b600082825260208201905092915050565b60005b838110156116af578082015181840152602081019050611694565b60008484015250505050565b6000601f19601f8301169050919050565b60006116d782611675565b6116e18185611680565b93506116f1818560208601611691565b6116fa816116bb565b840191505092915050565b6000602082019050818103600083015261171f81846116cc565b905092915050565b6000604051905090565b600080fd5b600080fd5b600073ffffffffffffffffffffffffffffffffffffffff82169050919050565b60006117668261173b565b9050919050565b6117768161175b565b811461178157600080fd5b50565b6000813590506117938161176d565b92915050565b6000819050919050565b6117ac81611799565b81146117b757600080fd5b50565b6000813590506117c9816117a3565b92915050565b600080604083850312156117e6576117e5611731565b5b60006117f485828601611784565b9250506020611805858286016117ba565b9150509250929050565b60008115159050919050565b6118248161180f565b82525050565b600060208201905061183f600083018461181b565b92915050565b61184e81611799565b82525050565b60006020820190506118696000830184611845565b92915050565b60008060006060848603121561188857611887611731565b5b600061189686828701611784565b93505060206118a786828701611784565b92505060406118b8868287016117ba565b9150509250925092565b600060ff82169050919050565b6118d8816118c2565b82525050565b60006020820190506118f360008301846118cf565b92915050565b60006020828403121561190f5761190e611731565b5b600061191d84828501611784565b91505092915050565b600081519050919050565b600082825260208201905092915050565b6000819050602082019050919050565b600082825260208201905092915050565b600061196e82611675565b6119788185611952565b9350611988818560208601611691565b611991816116bb565b840191505092915050565b60006119a88383611963565b905092915050565b6000602082019050919050565b60006119c882611926565b6119d28185611931565b9350836020820285016119e485611942565b8060005b85811015611a205784840389528151611a01858261199c565b9450611a0c836119b0565b925060208a019950506001810190506119e8565b50829750879550505050505092915050565b60006020820190508181036000830152611a4c81846119bd565b905092915050565b611a5d8161175b565b82525050565b6000602082019050611a786000830184611a54565b92915050565b600080fd5b600080fd5b7f4e487b7100000000000000000000000000000000000000000000000000000000600052604160045260246000fd5b611ac0826116bb565b810181811067ffffffffffffffff82111715611adf57611ade611a88565b5b80604052505050565b6000611af2611727565b9050611afe8282611ab7565b919050565b600067ffffffffffffffff821115611b1e57611b1d611a88565b5b611b27826116bb565b9050602081019050919050565b82818337600083830152505050565b6000611b56611b5184611b03565b611ae8565b905082815260208101848484011115611b7257611b71611a83565b5b611b7d848285611b34565b509392505050565b600082601f830112611b9a57611b99611a7e565b5b8135611baa848260208601611b43565b91505092915050565b60008060408385031215611bca57611bc9611731565b5b600083013567ffffffffffffffff811115611be857611be7611736565b5b611bf485828601611b85565b9250506020611c05858286016117ba565b9150509250929050565b60008060408385031215611c2657611c25611731565b5b6000611c3485828601611784565b9250506020611c4585828601611784565b9150509250929050565b7f4e487b7100000000000000000000000000000000000000000000000000000000600052602260045260246000fd5b60006002820490506001821680611c9657607f821691505b602082108103611ca957611ca8611c4f565b5b50919050565b7f547572696e673a204d6574686f642063616e206f6e6c792062652063616c6c6560008201527f642062792074656163686572206f72206f776e65720000000000000000000000602082015250565b6000611d0b603583611680565b9150611d1682611caf565b604082019050919050565b60006020820190508181036000830152611d3a81611cfe565b9050919050565b600081905092915050565b6000611d5782611675565b611d618185611d41565b9350611d71818560208601611691565b80840191505092915050565b6000611d898284611d4c565b915081905092915050565b7f547572696e673a2043616e6e6f7420766f7465207477696365206f6e2074686560008201527f2073616d65207573657221000000000000000000000000000000000000000000602082015250565b6000611df0602b83611680565b9150611dfb82611d94565b604082019050919050565b60006020820190508181036000830152611e1f81611de3565b9050919050565b7f547572696e673a2043616e6e6f7420766f7465206d6f7265207468616e20322060008201527f5452430000000000000000000000000000000000000000000000000000000000602082015250565b6000611e82602383611680565b9150611e8d82611e26565b604082019050919050565b60006020820190508181036000830152611eb181611e75565b9050919050565b7f547572696e673a2043616e6e6f7420766f7465206f6e20796f757273656c6621600082015250565b6000611eee602083611680565b9150611ef982611eb8565b602082019050919050565b60006020820190508181036000830152611f1d81611ee1565b9050919050565b60006040820190508181036000830152611f3e81856116cc565b9050611f4d6020830184611845565b9392505050565b60008190508160005260206000209050919050565b60008154611f7681611c7e565b611f808186611680565b94506001821660008114611f9b5760018114611fb157611fe4565b60ff198316865281151560200286019350611fe4565b611fba85611f54565b60005b83811015611fdc57815481890152600182019150602081019050611fbd565b808801955050505b50505092915050565b6000819050919050565b6000819050919050565b600061201c61201761201284611fed565b611ff7565b611799565b9050919050565b61202c81612001565b82525050565b6000604082019050818103600083015261204c8185611f69565b905061205b6020830184612023565b9392505050565b7f547572696e673a204163636f756e7420636f6465206e6f7420666f756e642100600082015250565b6000612098601f83611680565b91506120a382612062565b602082019050919050565b600060208201905081810360008301526120c78161208b565b9050919050565b60006060820190506120e36000830186611a54565b6120f06020830185611845565b6120fd6040830184611845565b949350505050565b7f4e487b7100000000000000000000000000000000000000000000000000000000600052601160045260246000fd5b600061213f82611799565b915061214a83611799565b925082820190508082111561216257612161612105565b5b9291505056fea26469706673582212207846e4cf327bd14edbf02ecadf9837c424807203292f74fe4cd0797976ac40e164736f6c634300081c0033",
  "linkReferences": {},
  "deployedLinkReferences": {}
}