{
  "_format": "hh-sol-artifact-1",
  "contractName": "Turing",
  "sourceName": "contracts/Turing.sol",
  "abi": [
    {
      "inputs": [],
      "stateMutability": "nonpayable",
      "type": "constructor"
    },
    {
      "inputs": [
        {
          "internalType": "address",
          "name": "spender",
          "type": "address"
        },
        {
          "internalType": "uint256",
          "name": "allowance",
          "type": "uint256"
        },
        {
          "internalType": "uint256",
          "name": "needed",
          "type": "uint256"
        }
      ],
      "name": "ERC20InsufficientAllowance",
      "type": "error"
    },
    {
      "inputs": [
        {
          "internalType": "address",
          "name": "sender",
          "type": "address"
        },
        {
          "internalType": "uint256",
          "name": "balance",
          "type": "uint256"
        },
        {
          "internalType": "uint256",
          "name": "needed",
          "type": "uint256"
        }
      ],
      "name": "ERC20InsufficientBalance",
      "type": "error"
    },
    {
      "inputs": [
        {
          "internalType": "address",
          "name": "approver",
          "type": "address"
        }
      ],
      "name": "ERC20InvalidApprover",
      "type": "error"
    },
    {
      "inputs": [
        {
          "internalType": "address",
          "name": "receiver",
          "type": "address"
        }
      ],
      "name": "ERC20InvalidReceiver",
      "type": "error"
    },
    {
      "inputs": [
        {
          "internalType": "address",
          "name": "sender",
          "type": "address"
        }
      ],
      "name": "ERC20InvalidSender",
      "type": "error"
    },
    {
      "inputs": [
        {
          "internalType": "address",
          "name": "spender",
          "type": "address"
        }
      ],
      "name": "ERC20InvalidSpender",
      "type": "error"
    },
    {
      "anonymous": false,
      "inputs": [
        {
          "indexed": true,
          "internalType": "address",
          "name": "owner",
          "type": "address"
        },
        {
          "indexed": true,
          "internalType": "address",
          "name": "spender",
          "type": "address"
        },
        {
          "indexed": false,
          "internalType": "uint256",
          "name": "value",
          "type": "uint256"
        }
      ],
      "name": "Approval",
      "type": "event"
    },
    {
      "anonymous": false,
      "inputs": [
        {
          "indexed": false,
          "internalType": "string",
          "name": "name",
          "type": "string"
        },
        {
          "indexed": false,
          "internalType": "uint256",
          "name": "amount",
          "type": "uint256"
        }
      ],
      "name": "OnVote",
      "type": "event"
    },
    {
      "anonymous": false,
      "inputs": [
        {
          "indexed": true,
          "internalType": "address",
          "name": "from",
          "type": "address"
        },
        {
          "indexed": true,
          "internalType": "address",
          "name": "to",
          "type": "address"
        },
        {
          "indexed": false,
          "internalType": "uint256",
          "name": "value",
          "type": "uint256"
        }
      ],
      "name": "Transfer",
      "type": "event"
    },
    {
      "inputs": [
        {
          "internalType": "address",
          "name": "owner",
          "type": "address"
        },
        {
          "internalType": "address",
          "name": "spender",
          "type": "address"
        }
      ],
      "name": "allowance",
      "outputs": [
        {
          "internalType": "uint256",
          "name": "",
          "type": "uint256"
        }
      ],
      "stateMutability": "view",
      "type": "function"
    },
    {
      "inputs": [
        {
          "internalType": "address",
          "name": "spender",
          "type": "address"
        },
        {
          "internalType": "uint256",
          "name": "value",
          "type": "uint256"
        }
      ],
      "name": "approve",
      "outputs": [
        {
          "internalType": "bool",
          "name": "",
          "type": "bool"
        }
      ],
      "stateMutability": "nonpayable",
      "type": "function"
    },
    {
      "inputs": [
        {
          "internalType": "address",
          "name": "account",
          "type": "address"
        }
      ],
      "name": "balanceOf",
      "outputs": [
        {
          "internalType": "uint256",
          "name": "",
          "type": "uint256"
        }
      ],
      "stateMutability": "view",
      "type": "function"
    },
    {
      "inputs": [],
      "name": "decimals",
      "outputs": [
        {
          "internalType": "uint8",
          "name": "",
          "type": "uint8"
        }
      ],
      "stateMutability": "view",
      "type": "function"
    },
    {
      "inputs": [],
      "name": "deployer",
      "outputs": [
        {
          "internalType": "address",
          "name": "",
          "type": "address"
        }
      ],
      "stateMutability": "view",
      "type": "function"
    },
    {
      "inputs": [],
      "name": "getAllAuthorizedUsers",
      "outputs": [
        {
          "internalType": "string[]",
          "name": "",
          "type": "string[]"
        }
      ],
      "stateMutability": "view",
      "type": "function"
    },
    {
      "inputs": [],
      "name": "getLoggedUser",
      "outputs": [
        {
          "internalType": "string",
          "name": "",
          "type": "string"
        }
      ],
      "stateMutability": "view",
      "type": "function"
    },
    {
      "inputs": [
        {
          "internalType": "string",
          "name": "name",
          "type": "string"
        },
        {
          "internalType": "uint256",
          "name": "amount",
          "type": "uint256"
        }
      ],
      "name": "issueToken",
      "outputs": [],
      "stateMutability": "nonpayable",
      "type": "function"
    },
    {
      "inputs": [],
      "name": "name",
      "outputs": [
        {
          "internalType": "string",
          "name": "",
          "type": "string"
        }
      ],
      "stateMutability": "view",
      "type": "function"
    },
    {
      "inputs": [],
      "name": "symbol",
      "outputs": [
        {
          "internalType": "string",
          "name": "",
          "type": "string"
        }
      ],
      "stateMutability": "view",
      "type": "function"
    },
    {
      "inputs": [],
      "name": "teacherAddress",
      "outputs": [
        {
          "internalType": "address",
          "name": "",
          "type": "address"
        }
      ],
      "stateMutability": "view",
      "type": "function"
    },
    {
      "inputs": [],
      "name": "totalSupply",
      "outputs": [
        {
          "internalType": "uint256",
          "name": "",
          "type": "uint256"
        }
      ],
      "stateMutability": "view",
      "type": "function"
    },
    {
      "inputs": [
        {
          "internalType": "address",
          "name": "to",
          "type": "address"
        },
        {
          "internalType": "uint256",
          "name": "value",
          "type": "uint256"
        }
      ],
      "name": "transfer",
      "outputs": [
        {
          "internalType": "bool",
          "name": "",
          "type": "bool"
        }
      ],
      "stateMutability": "nonpayable",
      "type": "function"
    },
    {
      "inputs": [
        {
          "internalType": "address",
          "name": "from",
          "type": "address"
        },
        {
          "internalType": "address",
          "name": "to",
          "type": "address"
        },
        {
          "internalType": "uint256",
          "name": "value",
          "type": "uint256"
        }
      ],
      "name": "transferFrom",
      "outputs": [
        {
          "internalType": "bool",
          "name": "",
          "type": "bool"
        }
      ],
      "stateMutability": "nonpayable",
      "type": "function"
    },
    {
      "inputs": [
        {
          "internalType": "string",
          "name": "name",
          "type": "string"
        },
        {
          "internalType": "uint256",
          "name": "amount",
          "type": "uint256"
        }
      ],
      "name": "vote",
      "outputs": [],
      "stateMutability": "nonpayable",
      "type": "function"
    },
    {
      "inputs": [],
      "name": "votingActive",
      "outputs": [
        {
          "internalType": "bool",
          "name": "",
          "type": "bool"
        }
      ],
      "stateMutability": "view",
      "type": "function"
    },
    {
      "inputs": [],
      "name": "votingOff",
      "outputs": [],
      "stateMutability": "nonpayable",
      "type": "function"
    },
    {
      "inputs": [],
      "name": "votingOn",
      "outputs": [],
      "stateMutability": "nonpayable",
      "type": "function"
    }
  ],
  "bytecode": "0x608060405273502542668af09fa7aea52174b9965a7799343df7600660006101000a81548173ffffffffffffffffffffffffffffffffffffffff021916908373ffffffffffffffffffffffffffffffffffffffff1602179055506000600a556001600b60006101000a81548160ff02191690831515021790555034801561008557600080fd5b506040518060400160405280600681526020017f547572696e6700000000000000000000000000000000000000000000000000008152506040518060400160405280600381526020017f545243000000000000000000000000000000000000000000000000000000000081525081600390816101019190610b46565b5080600490816101119190610b46565b50505033600560006101000a81548173ffffffffffffffffffffffffffffffffffffffff021916908373ffffffffffffffffffffffffffffffffffffffff1602179055506101ae6040518060400160405280600581526020017f4b6576696e00000000000000000000000000000000000000000000000000000081525073f39fd6e51aad88f6f4ce6ab8827279cfffb922666106ea60201b60201c565b6102076040518060400160405280600581526020017f6e6f6d65320000000000000000000000000000000000000000000000000000008152507370997970c51812dc3a010c7d01b50e0d17dc79c86106ea60201b60201c565b6102606040518060400160405280600581526020017f6e6f6d6533000000000000000000000000000000000000000000000000000000815250733c44cdddb6a900fa2b585dd299e03d12fa4293bc6106ea60201b60201c565b6102b96040518060400160405280600581526020017f6e6f6d65340000000000000000000000000000000000000000000000000000008152507390f79bf6eb2c4f870365e785982e1f101e93b9066106ea60201b60201c565b6103126040518060400160405280600581526020017f6e6f6d65350000000000000000000000000000000000000000000000000000008152507315d34aaf54267db7d7c367839aaf71a00a2c6a656106ea60201b60201c565b61036b6040518060400160405280600a81526020017f4163636f756e742023390000000000000000000000000000000000000000000081525073a0ee7a142d267c1f36714e4a8f75612f20a797206106ea60201b60201c565b6103c46040518060400160405280600b81526020017f4163636f756e742023313000000000000000000000000000000000000000000081525073bcd4042de499d14e55001ccbb24a551f3b9540966106ea60201b60201c565b61041d6040518060400160405280600b81526020017f4163636f756e74202331310000000000000000000000000000000000000000008152507371be63f3384f5fb98995898a86b02fb2426c57886106ea60201b60201c565b6104766040518060400160405280600b81526020017f4163636f756e742023313200000000000000000000000000000000000000000081525073fabb0ac9d68b0b445fb7357272ff202c5651694a6106ea60201b60201c565b6104cf6040518060400160405280600b81526020017f4163636f756e7420233133000000000000000000000000000000000000000000815250731cbd3b2770909d4e10f157cabc84c7264073c9ec6106ea60201b60201c565b6105286040518060400160405280600b81526020017f4163636f756e742023313400000000000000000000000000000000000000000081525073df3e18d64bc6a983f673ab319ccae4f1a57c70976106ea60201b60201c565b6105816040518060400160405280600b81526020017f4163636f756e742023313500000000000000000000000000000000000000000081525073cd3b766ccdd6ae721141f452c550ca635964ce716106ea60201b60201c565b6105da6040518060400160405280600b81526020017f4163636f756e7420233136000000000000000000000000000000000000000000815250732546bcd3c84621e976d8185a91a922ae77ecec306106ea60201b60201c565b6106336040518060400160405280600b81526020017f4163636f756e742023313700000000000000000000000000000000000000000081525073bda5747bfd65f08deb54cb465eb87d40e51b197e6106ea60201b60201c565b61068c6040518060400160405280600b81526020017f4163636f756e742023313800000000000000000000000000000000000000000081525073dd2fd4581271e230360230f9337d5c0430bf44c06106ea60201b60201c565b6106e56040518060400160405280600b81526020017f4163636f756e7420233139000000000000000000000000000000000000000000815250738626f6940e2eb28930efb4cef49b2d1f2c9c11996106ea60201b60201c565b610cf8565b60405180608001604052808273ffffffffffffffffffffffffffffffffffffffff16815260200160008152602001600a548152602001838152506007836040516107349190610c7e565b908152602001604051809103902060008201518160000160006101000a81548173ffffffffffffffffffffffffffffffffffffffff021916908373ffffffffffffffffffffffffffffffffffffffff160217905550602082015181600101556040820151816002015560608201518160030190816107b29190610b46565b5090505060405180608001604052808273ffffffffffffffffffffffffffffffffffffffff16815260200160008152602001600a54815260200183815250600860008373ffffffffffffffffffffffffffffffffffffffff1673ffffffffffffffffffffffffffffffffffffffff16815260200190815260200160002060008201518160000160006101000a81548173ffffffffffffffffffffffffffffffffffffffff021916908373ffffffffffffffffffffffffffffffffffffffff1602179055506020820151816001015560408201518160020155606082015181600301908161089f9190610b46565b509050506001600a60008282546108b69190610cc4565b925050819055506009829080600181540180825580915050600190039060005260206000200160009091909190915090816108f19190610b46565b505050565b600081519050919050565b7f4e487b7100000000000000000000000000000000000000000000000000000000600052604160045260246000fd5b7f4e487b7100000000000000000000000000000000000000000000000000000000600052602260045260246000fd5b6000600282049050600182168061097757607f821691505b60208210810361098a57610989610930565b5b50919050565b60008190508160005260206000209050919050565b60006020601f8301049050919050565b600082821b905092915050565b6000600883026109f27fffffffffffffffffffffffffffffffffffffffffffffffffffffffffffffffff826109b5565b6109fc86836109b5565b95508019841693508086168417925050509392505050565b6000819050919050565b6000819050919050565b6000610a43610a3e610a3984610a14565b610a1e565b610a14565b9050919050565b6000819050919050565b610a5d83610a28565b610a71610a6982610a4a565b8484546109c2565b825550505050565b600090565b610a86610a79565b610a91818484610a54565b505050565b5b81811015610ab557610aaa600082610a7e565b600181019050610a97565b5050565b601f821115610afa57610acb81610990565b610ad4846109a5565b81016020851015610ae3578190505b610af7610aef856109a5565b830182610a96565b50505b505050565b600082821c905092915050565b6000610b1d60001984600802610aff565b1980831691505092915050565b6000610b368383610b0c565b9150826002028217905092915050565b610b4f826108f6565b67ffffffffffffffff811115610b6857610b67610901565b5b610b72825461095f565b610b7d828285610ab9565b600060209050601f831160018114610bb05760008415610b9e578287015190505b610ba88582610b2a565b865550610c10565b601f198416610bbe86610990565b60005b82811015610be657848901518255600182019150602085019450602081019050610bc1565b86831015610c035784890151610bff601f891682610b0c565b8355505b6001600288020188555050505b505050505050565b600081905092915050565b60005b83811015610c41578082015181840152602081019050610c26565b60008484015250505050565b6000610c58826108f6565b610c628185610c18565b9350610c72818560208601610c23565b80840191505092915050565b6000610c8a8284610c4d565b915081905092915050565b7f4e487b7100000000000000000000000000000000000000000000000000000000600052601160045260246000fd5b6000610ccf82610a14565b9150610cda83610a14565b9250828201905080821115610cf257610cf1610c95565b5b92915050565b61222680610d076000396000f3fe608060405234801561001057600080fd5b50600436106101165760003560e01c806370a08231116100a2578063a638580311610071578063a6385803146102af578063a9059cbb146102cb578063c683e0f4146102fb578063d5f3948814610317578063dd62ed3e1461033557610116565b806370a082311461022557806384823cb51461025557806395d89b41146102735780639c28fdf81461029157610116565b806323b872dd116100e957806323b872dd14610191578063313ce567146101c1578063408e2727146101df5780634cf8461e146101fd57806360a3ae061461021b57610116565b806306fdde031461011b578063095ea7b31461013957806318160ddd1461016957806320949bb414610187575b600080fd5b610123610365565b604051610130919061178d565b60405180910390f35b610153600480360381019061014e9190611857565b6103f7565b60405161016091906118b2565b60405180910390f35b61017161041a565b60405161017e91906118dc565b60405180910390f35b61018f610424565b005b6101ab60048036038101906101a691906118f7565b610529565b6040516101b891906118b2565b60405180910390f35b6101c9610558565b6040516101d69190611966565b60405180910390f35b6101e7610561565b6040516101f491906118b2565b60405180910390f35b610205610574565b604051610212919061178d565b60405180910390f35b610223610646565b005b61023f600480360381019061023a9190611981565b61074b565b60405161024c91906118dc565b60405180910390f35b61025d610793565b60405161026a9190611aba565b60405180910390f35b61027b61086c565b604051610288919061178d565b60405180910390f35b6102996108fe565b6040516102a69190611aeb565b60405180910390f35b6102c960048036038101906102c49190611c3b565b610924565b005b6102e560048036038101906102e09190611857565b610dec565b6040516102f291906118b2565b60405180910390f35b61031560048036038101906103109190611c3b565b610e0f565b005b61031f61102f565b60405161032c9190611aeb565b60405180910390f35b61034f600480360381019061034a9190611c97565b611055565b60405161035c91906118dc565b60405180910390f35b60606003805461037490611d06565b80601f01602080910402602001604051908101604052809291908181526020018280546103a090611d06565b80156103ed5780601f106103c2576101008083540402835291602001916103ed565b820191906000526020600020905b8154815290600101906020018083116103d057829003601f168201915b5050505050905090565b6000806104026110dc565b905061040f8185856110e4565b600191505092915050565b6000600254905090565b600660009054906101000a900473ffffffffffffffffffffffffffffffffffffffff1673ffffffffffffffffffffffffffffffffffffffff163373ffffffffffffffffffffffffffffffffffffffff1614806104cd5750600560009054906101000a900473ffffffffffffffffffffffffffffffffffffffff1673ffffffffffffffffffffffffffffffffffffffff163373ffffffffffffffffffffffffffffffffffffffff16145b61050c576040517f08c379a000000000000000000000000000000000000000000000000000000000815260040161050390611da9565b60405180910390fd5b6001600b60006101000a81548160ff021916908315150217905550565b6000806105346110dc565b90506105418582856110f6565b61054c85858561118b565b60019150509392505050565b60006012905090565b600b60009054906101000a900460ff1681565b6060600860003373ffffffffffffffffffffffffffffffffffffffff1673ffffffffffffffffffffffffffffffffffffffff16815260200190815260200160002060030180546105c390611d06565b80601f01602080910402602001604051908101604052809291908181526020018280546105ef90611d06565b801561063c5780601f106106115761010080835404028352916020019161063c565b820191906000526020600020905b81548152906001019060200180831161061f57829003601f168201915b5050505050905090565b600660009054906101000a900473ffffffffffffffffffffffffffffffffffffffff1673ffffffffffffffffffffffffffffffffffffffff163373ffffffffffffffffffffffffffffffffffffffff1614806106ef5750600560009054906101000a900473ffffffffffffffffffffffffffffffffffffffff1673ffffffffffffffffffffffffffffffffffffffff163373ffffffffffffffffffffffffffffffffffffffff16145b61072e576040517f08c379a000000000000000000000000000000000000000000000000000000000815260040161072590611da9565b60405180910390fd5b6000600b60006101000a81548160ff021916908315150217905550565b60008060008373ffffffffffffffffffffffffffffffffffffffff1673ffffffffffffffffffffffffffffffffffffffff168152602001908152602001600020549050919050565b60606009805480602002602001604051908101604052809291908181526020016000905b828210156108635783829060005260206000200180546107d690611d06565b80601f016020809104026020016040519081016040528092919081815260200182805461080290611d06565b801561084f5780601f106108245761010080835404028352916020019161084f565b820191906000526020600020905b81548152906001019060200180831161083257829003601f168201915b5050505050815260200190600101906107b7565b50505050905090565b60606004805461087b90611d06565b80601f01602080910402602001604051908101604052809291908181526020018280546108a790611d06565b80156108f45780601f106108c9576101008083540402835291602001916108f4565b820191906000526020600020905b8154815290600101906020018083116108d757829003601f168201915b5050505050905090565b600660009054906101000a900473ffffffffffffffffffffffffffffffffffffffff1681565b60006007836040516109369190611e05565b90815260200160405180910390206040518060800160405290816000820160009054906101000a900473ffffffffffffffffffffffffffffffffffffffff1673ffffffffffffffffffffffffffffffffffffffff1673ffffffffffffffffffffffffffffffffffffffff16815260200160018201548152602001600282015481526020016003820180546109c990611d06565b80601f01602080910402602001604051908101604052809291908181526020018280546109f590611d06565b8015610a425780601f10610a1757610100808354040283529160200191610a42565b820191906000526020600020905b815481529060010190602001808311610a2557829003601f168201915b50505050508152505090506000600860003373ffffffffffffffffffffffffffffffffffffffff1673ffffffffffffffffffffffffffffffffffffffff1681526020019081526020016000206040518060800160405290816000820160009054906101000a900473ffffffffffffffffffffffffffffffffffffffff1673ffffffffffffffffffffffffffffffffffffffff1673ffffffffffffffffffffffffffffffffffffffff1681526020016001820154815260200160028201548152602001600382018054610b1390611d06565b80601f0160208091040260200160405190810160405280929190818152602001828054610b3f90611d06565b8015610b8c5780601f10610b6157610100808354040283529160200191610b8c565b820191906000526020600020905b815481529060010190602001808311610b6f57829003601f168201915b5050505050815250509050600081602001511480610bb85750600082604001516001901b826020015116145b610bf7576040517f08c379a0000000000000000000000000000000000000000000000000000000008152600401610bee90611e8e565b60405180910390fd5b671bc16d674ec800008310610c41576040517f08c379a0000000000000000000000000000000000000000000000000000000008152600401610c3890611f20565b60405180910390fd5b816000015173ffffffffffffffffffffffffffffffffffffffff163373ffffffffffffffffffffffffffffffffffffffff1603610cb3576040517f08c379a0000000000000000000000000000000000000000000000000000000008152600401610caa90611f8c565b60405180910390fd5b81604001516001901b600860003373ffffffffffffffffffffffffffffffffffffffff1673ffffffffffffffffffffffffffffffffffffffff16815260200190815260200160002060010160008282541792505081905550610d1982600001518461127f565b610d2b336702c68af0bb14000061127f565b7f7ee4a37341c35f44b067a5fa7320fbc16ffcbf0d852cfba271d76b78774ebb6e8484604051610d5c929190611fac565b60405180910390a17f7ee4a37341c35f44b067a5fa7320fbc16ffcbf0d852cfba271d76b78774ebb6e600860003373ffffffffffffffffffffffffffffffffffffffff1673ffffffffffffffffffffffffffffffffffffffff1681526020019081526020016000206003016702c68af0bb140000604051610dde9291906120ba565b60405180910390a150505050565b600080610df76110dc565b9050610e0481858561118b565b600191505092915050565b600660009054906101000a900473ffffffffffffffffffffffffffffffffffffffff1673ffffffffffffffffffffffffffffffffffffffff163373ffffffffffffffffffffffffffffffffffffffff161480610eb85750600560009054906101000a900473ffffffffffffffffffffffffffffffffffffffff1673ffffffffffffffffffffffffffffffffffffffff163373ffffffffffffffffffffffffffffffffffffffff16145b610ef7576040517f08c379a0000000000000000000000000000000000000000000000000000000008152600401610eee90611da9565b60405180910390fd5b600073ffffffffffffffffffffffffffffffffffffffff16600783604051610f1f9190611e05565b908152602001604051809103902060000160009054906101000a900473ffffffffffffffffffffffffffffffffffffffff1673ffffffffffffffffffffffffffffffffffffffff1603610fa7576040517f08c379a0000000000000000000000000000000000000000000000000000000008152600401610f9e90612136565b60405180910390fd5b610ff2600783604051610fba9190611e05565b908152602001604051809103902060000160009054906101000a900473ffffffffffffffffffffffffffffffffffffffff168261127f565b7f7ee4a37341c35f44b067a5fa7320fbc16ffcbf0d852cfba271d76b78774ebb6e8282604051611023929190611fac565b60405180910390a15050565b600560009054906101000a900473ffffffffffffffffffffffffffffffffffffffff1681565b6000600160008473ffffffffffffffffffffffffffffffffffffffff1673ffffffffffffffffffffffffffffffffffffffff16815260200190815260200160002060008373ffffffffffffffffffffffffffffffffffffffff1673ffffffffffffffffffffffffffffffffffffffff16815260200190815260200160002054905092915050565b600033905090565b6110f18383836001611301565b505050565b60006111028484611055565b90507fffffffffffffffffffffffffffffffffffffffffffffffffffffffffffffffff8110156111855781811015611175578281836040517ffb8f41b200000000000000000000000000000000000000000000000000000000815260040161116c93929190612156565b60405180910390fd5b61118484848484036000611301565b5b50505050565b600073ffffffffffffffffffffffffffffffffffffffff168373ffffffffffffffffffffffffffffffffffffffff16036111fd5760006040517f96c6fd1e0000000000000000000000000000000000000000000000000000000081526004016111f49190611aeb565b60405180910390fd5b600073ffffffffffffffffffffffffffffffffffffffff168273ffffffffffffffffffffffffffffffffffffffff160361126f5760006040517fec442f050000000000000000000000000000000000000000000000000000000081526004016112669190611aeb565b60405180910390fd5b61127a8383836114d8565b505050565b600073ffffffffffffffffffffffffffffffffffffffff168273ffffffffffffffffffffffffffffffffffffffff16036112f15760006040517fec442f050000000000000000000000000000000000000000000000000000000081526004016112e89190611aeb565b60405180910390fd5b6112fd600083836114d8565b5050565b600073ffffffffffffffffffffffffffffffffffffffff168473ffffffffffffffffffffffffffffffffffffffff16036113735760006040517fe602df0500000000000000000000000000000000000000000000000000000000815260040161136a9190611aeb565b60405180910390fd5b600073ffffffffffffffffffffffffffffffffffffffff168373ffffffffffffffffffffffffffffffffffffffff16036113e55760006040517f94280d620000000000000000000000000000000000000000000000000000000081526004016113dc9190611aeb565b60405180910390fd5b81600160008673ffffffffffffffffffffffffffffffffffffffff1673ffffffffffffffffffffffffffffffffffffffff16815260200190815260200160002060008573ffffffffffffffffffffffffffffffffffffffff1673ffffffffffffffffffffffffffffffffffffffff1681526020019081526020016000208190555080156114d2578273ffffffffffffffffffffffffffffffffffffffff168473ffffffffffffffffffffffffffffffffffffffff167f8c5be1e5ebec7d5bd14f71427d1e84f3dd0314c0f7b2291e5b200ac8c7c3b925846040516114c991906118dc565b60405180910390a35b50505050565b600073ffffffffffffffffffffffffffffffffffffffff168373ffffffffffffffffffffffffffffffffffffffff160361152a57806002600082825461151e91906121bc565b925050819055506115fd565b60008060008573ffffffffffffffffffffffffffffffffffffffff1673ffffffffffffffffffffffffffffffffffffffff168152602001908152602001600020549050818110156115b6578381836040517fe450d38c0000000000000000000000000000000000000000000000000000000081526004016115ad93929190612156565b60405180910390fd5b8181036000808673ffffffffffffffffffffffffffffffffffffffff1673ffffffffffffffffffffffffffffffffffffffff16815260200190815260200160002081905550505b600073ffffffffffffffffffffffffffffffffffffffff168273ffffffffffffffffffffffffffffffffffffffff16036116465780600260008282540392505081905550611693565b806000808473ffffffffffffffffffffffffffffffffffffffff1673ffffffffffffffffffffffffffffffffffffffff168152602001908152602001600020600082825401925050819055505b8173ffffffffffffffffffffffffffffffffffffffff168373ffffffffffffffffffffffffffffffffffffffff167fddf252ad1be2c89b69c2b068fc378daa952ba7f163c4a11628f55a4df523b3ef836040516116f091906118dc565b60405180910390a3505050565b600081519050919050565b600082825260208201905092915050565b60005b8381101561173757808201518184015260208101905061171c565b60008484015250505050565b6000601f19601f8301169050919050565b600061175f826116fd565b6117698185611708565b9350611779818560208601611719565b61178281611743565b840191505092915050565b600060208201905081810360008301526117a78184611754565b905092915050565b6000604051905090565b600080fd5b600080fd5b600073ffffffffffffffffffffffffffffffffffffffff82169050919050565b60006117ee826117c3565b9050919050565b6117fe816117e3565b811461180957600080fd5b50565b60008135905061181b816117f5565b92915050565b6000819050919050565b61183481611821565b811461183f57600080fd5b50565b6000813590506118518161182b565b92915050565b6000806040838503121561186e5761186d6117b9565b5b600061187c8582860161180c565b925050602061188d85828601611842565b9150509250929050565b60008115159050919050565b6118ac81611897565b82525050565b60006020820190506118c760008301846118a3565b92915050565b6118d681611821565b82525050565b60006020820190506118f160008301846118cd565b92915050565b6000806000606084860312156119105761190f6117b9565b5b600061191e8682870161180c565b935050602061192f8682870161180c565b925050604061194086828701611842565b9150509250925092565b600060ff82169050919050565b6119608161194a565b82525050565b600060208201905061197b6000830184611957565b92915050565b600060208284031215611997576119966117b9565b5b60006119a58482850161180c565b91505092915050565b600081519050919050565b600082825260208201905092915050565b6000819050602082019050919050565b600082825260208201905092915050565b60006119f6826116fd565b611a0081856119da565b9350611a10818560208601611719565b611a1981611743565b840191505092915050565b6000611a3083836119eb565b905092915050565b6000602082019050919050565b6000611a50826119ae565b611a5a81856119b9565b935083602082028501611a6c856119ca565b8060005b85811015611aa85784840389528151611a898582611a24565b9450611a9483611a38565b925060208a01995050600181019050611a70565b50829750879550505050505092915050565b60006020820190508181036000830152611ad48184611a45565b905092915050565b611ae5816117e3565b82525050565b6000602082019050611b006000830184611adc565b92915050565b600080fd5b600080fd5b7f4e487b7100000000000000000000000000000000000000000000000000000000600052604160045260246000fd5b611b4882611743565b810181811067ffffffffffffffff82111715611b6757611b66611b10565b5b80604052505050565b6000611b7a6117af565b9050611b868282611b3f565b919050565b600067ffffffffffffffff821115611ba657611ba5611b10565b5b611baf82611743565b9050602081019050919050565b82818337600083830152505050565b6000611bde611bd984611b8b565b611b70565b905082815260208101848484011115611bfa57611bf9611b0b565b5b611c05848285611bbc565b509392505050565b600082601f830112611c2257611c21611b06565b5b8135611c32848260208601611bcb565b91505092915050565b60008060408385031215611c5257611c516117b9565b5b600083013567ffffffffffffffff811115611c7057611c6f6117be565b5b611c7c85828601611c0d565b9250506020611c8d85828601611842565b9150509250929050565b60008060408385031215611cae57611cad6117b9565b5b6000611cbc8582860161180c565b9250506020611ccd8582860161180c565b9150509250929050565b7f4e487b7100000000000000000000000000000000000000000000000000000000600052602260045260246000fd5b60006002820490506001821680611d1e57607f821691505b602082108103611d3157611d30611cd7565b5b50919050565b7f547572696e673a204d6574686f642063616e206f6e6c792062652063616c6c6560008201527f642062792074656163686572206f72206f776e65720000000000000000000000602082015250565b6000611d93603583611708565b9150611d9e82611d37565b604082019050919050565b60006020820190508181036000830152611dc281611d86565b9050919050565b600081905092915050565b6000611ddf826116fd565b611de98185611dc9565b9350611df9818560208601611719565b80840191505092915050565b6000611e118284611dd4565b915081905092915050565b7f547572696e673a2043616e6e6f7420766f7465207477696365206f6e2074686560008201527f2073616d65207573657221000000000000000000000000000000000000000000602082015250565b6000611e78602b83611708565b9150611e8382611e1c565b604082019050919050565b60006020820190508181036000830152611ea781611e6b565b9050919050565b7f547572696e673a2043616e6e6f7420766f7465206d6f7265207468616e20322060008201527f5452430000000000000000000000000000000000000000000000000000000000602082015250565b6000611f0a602383611708565b9150611f1582611eae565b604082019050919050565b60006020820190508181036000830152611f3981611efd565b9050919050565b7f547572696e673a2043616e6e6f7420766f7465206f6e20796f757273656c6621600082015250565b6000611f76602083611708565b9150611f8182611f40565b602082019050919050565b60006020820190508181036000830152611fa581611f69565b9050919050565b60006040820190508181036000830152611fc68185611754565b9050611fd560208301846118cd565b9392505050565b60008190508160005260206000209050919050565b60008154611ffe81611d06565b6120088186611708565b9450600182166000811461202357600181146120395761206c565b60ff19831686528115156020028601935061206c565b61204285611fdc565b60005b8381101561206457815481890152600182019150602081019050612045565b808801955050505b50505092915050565b6000819050919050565b6000819050919050565b60006120a461209f61209a84612075565b61207f565b611821565b9050919050565b6120b481612089565b82525050565b600060408201905081810360008301526120d48185611ff1565b90506120e360208301846120ab565b9392505050565b7f547572696e673a204163636f756e7420636f6465206e6f7420666f756e642100600082015250565b6000612120601f83611708565b915061212b826120ea565b602082019050919050565b6000602082019050818103600083015261214f81612113565b9050919050565b600060608201905061216b6000830186611adc565b61217860208301856118cd565b61218560408301846118cd565b949350505050565b7f4e487b7100000000000000000000000000000000000000000000000000000000600052601160045260246000fd5b60006121c782611821565b91506121d283611821565b92508282019050808211156121ea576121e961218d565b5b9291505056fea26469706673582212201156139bb9bff0425184b0a22b4608022ba23404f936c10b16a9259abc6bc3e664736f6c634300081c0033",
  "linkReferences": {},
  "deployedLinkReferences": {}
}